:100000000C94A2000C94BF000C94BF000C94BF0091
:100010000C94BF000C94BF000C94BF000C94BF0064
:100020000C94BF000C94AF010C94BF000C94D40648
:100030000C94BF000C94BF000C94BF000C94BF0044
:100040000C94BF000C94BF000C94BF000C94BF0034
:100050000C94BF000C94BF000C94BF000C94BF0024
:100060000C94BF000C94BF000C94BF000C94BF0014
:100070000C94BF00FF057C057B06BB057B06400595
:1000800086047B061B055F053406580626252423B7
:100090002221201F1E05010906A101050719E029DB
:1000A000E715002501750195088102950175088104
:1000B000019505750105081901290591029501753C
:1000C0000391019506750815002565050719002996
:1000D000658100C0040309042C034100560052004E
:1000E000200055005300420020004B0045005900FD
:1000F00042004F00410052004400200044004500EF
:100100004D004F000C03410054004D0045004C00D1
:1001100009022200010100A03209040000010301CC
:100120000100092111010001223F00070581030898
:1001300000021201000200000020EB031720001053
:100140000102000111241FBECFEFD4E0DEBFCDBFFE
:1001500020E030E080E80FB6F894809361002093AF
:1001600061000FBE81E021E0A0E0B1E001C01D927E
:10017000AD31B207E1F70E94F7010C94FA070C9435
:10018000000010920F0110920E0110920D0184B127
:10019000887F84B985B1876085B98AB1807C8AB946
:1001A0008BB18F638BB910920B01E2EEF0E080818E
:1001B00084608083089520910D01222321F0213055
:1001C00009F453C00895189906C081E080930D0189
:1001D00084E990E03FC0199906C081E080930D0149
:1001E00083E990E037C01A9906C081E080930D0141
:1001F00082E990E02FC0489906C081E080930D010C
:1002000081E990E027C0499906C081E080930D0103
:1002100080E990E01FC04A9906C081E080930D01FB
:100220008FE890E017C04B9906C081E080930D01E4
:100230008EE890E00FC04C9906C081E080930D01DC
:100240008DE890E007C04D9936C081E080930D01A4
:100250008CE890E0909308018093070181E090E0A2
:1002600090930A018093090108958091090190916A
:100270000A010097F1F030910E0131111CC030914C
:100280000F01311118C0E0910701F0910801AF0191
:100290004F5F5F4F5093080140930701E491E09353
:1002A0000C01019790930A018093090120930E019C
:1002B000089510920D010895809117018823E1F1AE
:1002C00080910E01811109C080910B018436A0F14B
:1002D0000E94DB0010920B01089581E08093E900F9
:1002E0009091E80095FF28C090910F0191110BC0EB
:1002F00080930F011092F1001092F10080910C0197
:100300008093F1000AC010920E0110920F0110921A
:10031000F1001092F1001092F1001092F100109291
:10032000F1001092F1001092F1001092F100809112
:10033000E8008F778093E800089580910401813070
:1003400059F480916B00816F80936B00D89A8091F3
:10035000680081608093680078940C94E4011F9297
:100360000F920FB60F9211242F933F934F935F93E9
:100370006F937F938F939F93AF93BF93EF93FF936D
:10038000E8E6F0E080818E7F8083D89AEBE6F0E0AB
:1003900080818E7080830E949506FF91EF91BF91BE
:1003A000AF919F918F917F916F915F914F913F910D
:1003B0002F910F900FBE0F901F90189580910B01F9
:1003C0008F5F80930B01089513BE83B7856083BF51
:1003D000889508950E94B0060C94C1000E94B7064B
:1003E0000E945C01FBCF0E94EA010E94EE010E9484
:1003F000E10720E030E080E80FB6F89480936100D8
:10040000209361000FBE0E94F30180E090E0089508
:10041000E8EDF0E080818F77808380818068808341
:1004200008958091D80080628093D80086E089BDCD
:1004300009B400FEFDCFF8948091D8008F7D8093A1
:10044000D8008091E0008E7F8093E0008091E000F2
:100450008B7F8093E0000E9478028091E2008160AF
:100460008093E2008091E20088608093E2007894BB
:10047000089580910101811107C081E080930101FD
:100480000E9411020E94C100809105019091060115
:1004900090FF10C080910501909106019E7F90937E
:1004A00006018093050181E08093EA001092EA0042
:1004B000109217011092E9008091E80083FD0C94DE
:1004C0006B040895EBEEF0E090819160908380934F
:1004D000EC00EDEEF0E080818270682B608380811B
:1004E000826080838091EE00881F8827881F08958E
:1004F0001092E9008091EB0080FD06C01092E900A7
:1005000060E282E00C94620280E0089581E08093D2
:10051000E90060E081EC0C94620280E00895892B90
:1005200091F481E08093E9008091EB0080618093F9
:10053000EB0082E08093EA001092EA008091EB00E9
:1005400088608093EB0008958330E1F4613079F0A6
:1005500040F06230B9F48CE28093180188ED90E0AD
:100560000BC084E08093180184ED90E005C08CE01E
:100570008093180184E091E090931A01809319010F
:1005800081E0089580E00895CF93DF9300D000D0FC
:10059000CDB7DEB78091F10089838091F1008A8325
:1005A0008FE38093180185E990E090931A0180937E
:1005B00019018091F1008B838091F1008C838091EF
:1005C000E800877F8093E8002B813C8180911801AF
:1005D000482F50E04217530720F48F7191E0B9F093
:1005E00002C02093180190E012C08091E80082FDC3
:1005F00029C08091E80080FFFCCF81E220911801A2
:1006000021110AC08091E8008E7F8093E8008091DC
:1006100018018111EACF16C08150A1F3E0911901B0
:10062000F0911A019F012F5F3F4F30931A012093E1
:100630001901E491E093F1002091180121502093D9
:100640001801DCCF8091E80082FD0FC0913049F4A1
:100650008091E80080FFFCCF8091E8008E7F80933E
:10066000E8008091E80082FFFCCF8091E8008B7F5A
:100670008093E8008091E8008F778093E8000F90E6
:100680000F900F900F90DF91CF9108958091E80027
:10069000877F8093E8008091E8008E7F8093E80058
:1006A0008091E80082FFFCCF8091E8008B7F8093EF
:1006B000E8008091E8008F778093E8008091E8005F
:1006C0008E7F8093E8000895CF93DF9300D0CDB75D
:1006D000DEB78091F10089838091F1008A83809157
:1006E000E800877F8093E800609302018091E80032
:1006F0008E7F8093E8008091E80080FFFCCF0F9010
:100700000F90DF91CF910895CF93DF9300D000D069
:10071000CDB7DEB78091F10089838091F1008A83A3
:100720008091F1008B838091F1008C838091E800AF
:10073000877F8093E8008B819C81892B49F0809191
:1007400002018093F1008091E8008E7F8093E800A1
:100750008091E80082FFFCCF8091E8008B7F80933E
:10076000E8008091E8008F778093E8000F900F9069
:100770000F900F90DF91CF910895CF93DF9300D02A
:1007800000D0CDB7DEB78091F10089838091F10070
:100790008A8389E08093180182E291E090931A01A4
:1007A000809319018091F1008B838091F1008C83FB
:1007B0008091E800877F8093E8002B813C818091C5
:1007C0001801482F50E04217530720F48F7191E031
:1007D000B9F002C02093180190E012C08091E800A7
:1007E00082FD29C08091E80080FFFCCF81E220914A
:1007F000180121110AC08091E8008E7F8093E800E3
:10080000809118018111EACF16C08150A1F3E091C7
:100810001901F0911A019F012F5F3F4F30931A0188
:1008200020931901E491E093F100209118012150E7
:1008300020931801DCCF8091E80082FD0FC0913039
:1008400049F48091E80080FFFCCF8091E8008E7F22
:100850008093E8008091E80082FFFCCF8091E8005F
:100860008B7F8093E8008091E8008F778093E80089
:100870000F900F900F900F90DF91CF910895282F38
:10088000962F8091F1006091F100213861F496304B
:1008900001F5613229F06232E1F40E94C40217C00E
:1008A0000E94BD0314C0213261F4993029F09A30BE
:1008B00081F40E9464030BC0623059F40E94460325
:1008C00006C0213A31F4923021F40E94840381E081
:1008D000089580E008950F931F93CF93DF9300D086
:1008E000CDB7DEB78091E8008B7F8093E800109150
:1008F000F1000091F100802F90E08C30910508F01C
:10090000FAC1FC01E65CFF4F0C94F407103809F0C3
:10091000F2C16091F1008091F100813041F08230AC
:1009200081F482E28093180180E191E005C082E1C8
:100930008093180182E391E090931A01809319014A
:1009400005C00E94A402882309F4D5C18091F1005A
:100950008091F1008091F10089838091F1008A8378
:100960008091E800877F8093E80029813A81809117
:100970001801482F50E04217530720F48F7191E07F
:1009800021F002C02093180190E08091E8008F7E52
:100990008093E80080911801811104C0913009F022
:1009A0003DC02FC08091E80084FDF8CF8091E80021
:1009B00080FD04C08091E80084FFF8CF81E220919F
:1009C00018012223B1F08150A1F0E0911901F091BA
:1009D0001A019F012F5F3F4F30931A012093190195
:1009E000E491E093F1002091180121502093180127
:1009F000E6CF8091E80084FDD1CF8091E8008E7F22
:100A0000C7CF8091E80084FD09C08091E80080FF95
:100A1000FCCF8091E8008E7F8093E8008091E80011
:100A200084FFFCCF8091E8008F7E8093E800809166
:100A3000E8008B7F22C0103809F05DC18091E8008A
:100A4000877F8093E800809117018093F100809167
:100A5000E8008E7F8093E8008091E8008F77809394
:100A6000E8008091E80082FFFCCF8091E8008B7F56
:100A70008093E8008091E8008F778093E8004EC172
:100A8000111139C19091F1008091E3009F77807836
:100A9000892B8093E3008091E800877F8093E800B2
:100AA0008091E8008E7F8093E8008091E80080FFCD
:100AB000FCCF8091E30080688093E3002FC1111187
:100AC0001AC19091F100923008F015C18091E800B0
:100AD000877F8093E800909317018091E8008E7FD4
:100AE0008093E800809117010F900F90DF91CF91D4
:100AF0001F910F910C948602112319F0123071F09E
:100B0000FAC08091F100813009F0F5C080910301B5
:100B10008D7F809303011092040168C08091F100E1
:100B20009091F1008111E7C0E091F100EF77E0933F
:100B3000E9008091EB0080FF4AC0EE23A9F080918C
:100B4000EB0080618093EB0081E090E00E2E01C00D
:100B5000880F0A94EAF78093EA001092EA008091E5
:100B6000EB0088608093EB001092E900F0E0E05F1A
:100B7000FE4F10823BC0112319F0123071F0BBC040
:100B80009091F100913009F0B6C08091030182602C
:100B9000809303019093040129C08091F10090910A
:100BA000F1008111A8C0E091F100EF7751F480913C
:100BB000EB0080628093EB008091E800877F809358
:100BC000E800E093E9008091EB0080FD03C0109203
:100BD000E90091C08091EB0080628093EB0010925D
:100BE000E900F0E0E05FFE4F81E080838091E80063
:100BF000877F8093E8008091E8008E7F3ECF8091D0
:100C0000F1008091F100E091F100113869F01238A3
:100C100099F0103809F06FC08091E800877F8093C9
:100C2000E8008091030112C08091E800877F8093E3
:100C3000E8001092F1000CC08091E800877F80935B
:100C4000E800EF77F0E0E05FFE4F80818093F100F5
:100C50001092F1008091E8008E7F8093E8008091EF
:100C6000E80082FFFCCF01CF113809F044C0809129
:100C7000F1008091F1009091F10099839091F10041
:100C80009A83811138C08091E800877F8093E800C3
:100C900089819A810E948D028093F1008091E80001
:100CA0008E7F8093E8008091E80082FFFCCFDDCE4C
:100CB000113009F56091F1008091F1009091F100FF
:100CC00099839091F1009A83811115C08091E80079
:100CD000877F8093E80089819A810E948F02109219
:100CE000E9008091E8008E7F8093E8008091E80021
:100CF00080FFFCCF13C0602F812F0E943F04811121
:100D00000DC08091EB0080628093EB008091E80041
:100D1000877F8093E80081E0809310010F900F900F
:100D2000DF91CF911F910F91089509B400FE11C07A
:100D30008091D8008F7D8093D8008091040181300C
:100D400071F48091E00082608093E00010920401D1
:100D500006C086E089BD09B400FEFDCFE9CF089545
:100D6000E3E6F0E080818E7F80830C9408020C948F
:100D700039028823C1F010921C0110921B012091AE
:100D80001B0130911C01283E334058F420911B0177
:100D900030911C012F5F3F4F30931C0120931B01AA
:100DA000EECF8150E6CF08951F920F920FB60F92AB
:100DB00011242F933F934F935F936F937F938F9360
:100DC0009F93AF93BF93EF93FF938091E10082FFD6
:100DD00009C08091E20082FF05C08BEF8093E100A3
:100DE0000E94DE018091E10080FF2BC08091E20033
:100DF00080FF27C081E0809300018FEE8093E100A7
:100E00008091050190910601806290930601809384
:100E100005018EEF8093E1008091E2008061809374
:100E2000E2008091E2008F7D8093E2008091D80003
:100E300080628093D80089B58D7F89BD19BC0E94DE
:100E40009D018091E10084FF75C08091E20084FFE4
:100E500071C009B400FE19C08091D8008F7D8093C5
:100E6000D8008FEE8093E10080910001882309F47F
:100E700061C08091E20080628093E2008091E20094
:100E800088608093E2009FEE06C086E089BD09B4C9
:100E900000FEFDCFE1CF8091E10084FF03C090937D
:100EA000E100F9CF82E00E94B9068091E10082FD65
:100EB00008C08091E10085FD04C08091E10083FFBE
:100EC0001CC08091E2008F7E8093E200809105013A
:100ED00090910601806490930601809305018091B2
:100EE000E20081608093E2008091E2008062809362
:100EF000E2008091E20088601BC08091E10084FDE7
:100F00004FC08091FB008F7D8093FB008091FB00A0
:100F100080688093FB008091FB008F7B8093FB00B7
:100F20008091FB008F738093FB008091E2008F7EA5
:100F30008093E2008091E10085FF1CC08091E20077
:100F400085FF18C0109200018091E2008F7E80938F
:100F5000E2008FED8093E1008091E2008F7D80932D
:100F6000E20080910501909106018068909306014E
:100F7000809305018091E10083FF12C08091E2001F
:100F800083FF0EC087EF8093E1000E94780280917A
:100F900005019091060191609093060180930501EF
:100FA000FF91EF91BF91AF919F918F917F916F9141
:100FB0005F914F913F912F910F900FBE0F901F9017
:100FC00018958FB7F89497EF94BF0FB6F894A8953B
:100FD00090916000986190936000109260000FBE45
:100FE00087FF01C078940895EE0FFF1F0590F491DC
:080FF000E02D0994F894FFCFF5
:00000001FF
